:0400000051EF00F0CC
:10000800FACF12F0FBCF13F0E9CF14F0D1ED00F0E6
:10001800D8CF01F0E8CF02F0E0CF03F0FACF04F038
:10002800FBCF05F0E9CF06F0EACF07F0E1CF08F003
:10003800E2CF09F0D9CF0AF0DACF0BF0F3CF0CF00A
:10004800F4CF0DF0F6CF0EF0F7CF0FF0F8CF10F099
:10005800F5CF11F011C0F5FF10C0F8FF0FC0F7FF82
:100068000EC0F6FF0DC0F4FF0CC0F3FF0BC0DAFFA3
:100078000AC0D9FF09C0E2FF08C0E1FF07C0EAFFD4
:1000880006C0E9FF05C0FBFF04C0FAFF03C0E0FF9C
:1000980002C0E8FF01C0D8FF100017EF01F01FEC05
:1000A80001F005EC01F0F2A4FED7FD0ED76E160E96
:1000B800D66EF2942550D8A402D0010E01D0000EBD
:1000C800256E2550D8B45AD083B402D0010E01D081
:1000D800000E206E2046204683502018FB0B201867
:1000E800836E83B43FD083B802D0010E01D0000ED6
:1000F800206E203A83502018EF0B2018836E83B8A7
:1001080026D083B002D0010E01D0000E206E83509D
:100118002018FE0B2018836E83B00DD083BC02D04C
:10012800010E01D0000E206E203A20462046835052
:100138002018BF0B2FD083BE02D0010E01D0000EB5
:10014800206E20322032835020187F0B23D083B2B8
:1001580002D0010E01D0000E206E204683502018D8
:10016800FD0B18D083BA02D0010E01D0000E206E0C
:10017800203A204683502018DF0B0CD083B602D0DB
:10018800010E01D0000E206E2046204620468350E6
:100198002018F70B2018836E86D70600EACF15F0D3
:1001A800E1CF16F0E2CF17F0D9CF18F0DACF19F077
:1001B800F3CF1AF0F4CF1BF0F6CF1CF0F7CF1DF0F9
:1001C800F8CF1EF0F5CF1FF01FC0F5FF1EC0F8FFD7
:1001D8001DC0F7FF1CC0F6FF1BC0F4FF1AC0F3FFD9
:1001E80019C0DAFF18C0D9FF17C0E2FF16C0E1FF37
:1001F80015C0EAFF14C0E9FF13C0FBFF12C0FAFFE5
:100208001100000E956E000E836ED59ED59CD59A72
:10021800D596D590D592D594FD0ED76E160ED66E7E
:10022800F294D58E1200256A246A236A226A216A0A
:08023800000153EF00F0120079
:020000040020DA
:08000000FFFFFFFFFFFFFFFF00
:020000040030CA
:0E000000240E1F1EFF8381FF0FC00FE00F4074
:00000001FF
